:060000000A128A11122809
:10000800FE00030EF1000408F2000A08F300831250
:1000180003137F08F4000A128A11B8280A128A11F9
:100028001528AE0183010A128A1177288312031357
:10003800A501A11F2628A009A109A00A0319A10A40
:10004800A501A50AA31F3128A209A309A20A031919
:10005800A30A0130F6007608A506A601A701210823
:10006800200403196828A401A40AA11B4728013009
:100078000310A00DA10DFF3E031D3C280130F60022
:100088007608A407392801300310A60DA70DFF3EF6
:10009800031D482821082302031D54282008220292
:1000A800031C5D282008A2022108031CA303A30245
:1000B800261401300310A10CA00CFF3E031D5E287E
:1000C8000130A402031D4728250803197028A60932
:1000D800A709A60A0319A70A2708A101A107260844
:1000E800A001A007080083160313860183120313D7
:1000F800860110300A128A11E7200A128A11B028E4
:100108001030A0000030A1002E08A800A90128087E
:10011800A2002908A3000A128A111A200A128A11B9
:10012800831203132108AB01AB072008AA01AA0711
:100138002E080F39A800A9012808AC002908AD002D
:100148002A08A80003300310A80DFF3E031DA728A6
:100158000310280D2C0486000A30831203132E0284
:10016800031884282E08AF281412941BBD28141FC6
:10017800C4281308F0007008F5009413141314161B
:1001880083160313941E1419DA2883120313130811
:10019800F0007008F50083160313141CCF2883128F
:1001A80003131308F0007008AE00141683128C11A4
:1001B8007408FF0073088A0072088400710E8300B7
:1001C800FE0E7E0E0900F600831603138715071628
:1001D8003630831203139400013083160313910001
:1001E80080309400760893008C15831203138C11C9
:0601F8000B178B17080035
:02400E0071FF40
:00000001FF
