:060000000A128A11FC2F18
:100E68000A128A11422783160313111408000A1262
:100E78008A114227831603131115080083160313DA
:100E880011081F3903191419422F0800F0000A121B
:100E98008A114227700883120313930008008316EF
:100EA800031387150716283083120313940083163B
:100EB800031391019401093093000800F401F5012E
:100EC800701C6C2F7208F4070318F50A7308F507ED
:100ED80001300310F20DF30DFF3E031D6D2F01309D
:100EE8000310F10CF00CFF3E031D742F7108700401
:100EF800031D642F7508F101F1077408F001F0076C
:100F08000800FF3083160313860088018312031339
:100F180088018316031381130A128A1153270A12B0
:100F28008A11831203130608F6007608A000060843
:100F3800F60004300310F60CFF3E031D9E2F7608C2
:100F48000F39F7007708A50006080F39F60076086C
:100F5800A6002508F600F7017608F0007708F100EA
:100F68000A30F2000030F3000A128A1162270A12CE
:100F78008A11710883120313A201A2077008A10144
:100F8800A1072608F600F7017608A3007708A40051
:100F980023082107A70024080318240A2207A80009
:100FA800270888000A128A1134270A128A11103079
:100FB8000A128A114A270A128A1183120313270870
:100FC8000A128A114A270A128A110A128A113B2721
:100FD8000A128A110230F8000430F700BA30F6001D
:100FE800F60BF42FF70BF42FF80BF42F0000952FC6
:080FF80083010A128A11852F02
:02400E0071FF40
:00000001FF
