:060000000A128A11122809
:10000800FE00030EF0000408F1000A08F200831253
:1000180003137F08F3000A128A1147280A128A116B
:100028001528FD01FA01FB01FC0183010A128A115E
:100038001D28831603138501FF30860004308100D4
:100048008B160B118B177C088312031385007B0812
:100058007A040319392810307C02031C3528FC0166
:1000680039280130F9007908FC077C08831203134A
:1000780085007A30F4000030F5000A128A116020F9
:100088000A128A112B288B138B1C50288B100130D5
:10009800FA060030FB0654280B1D54280B117D145A
:1000A8008B177308FF0072088A0071088400700EAD
:1000B8008300FE0E7E0E0900F701F8017808803AE9
:1000C800F6007508803A7602031D6C2874087702DA
:1000D800031808007D1C62287D100130F7070318FB
:0800E800F80A0030F807622855
:02400E0071FF40
:00000001FF
