:060000000A128A11122809
:10000800FE00030EFA000408FB000A08FC00831235
:1000180003137F08FD000A128A11CA290A128A11DD
:100028001528BE01BC01BD0183133C30FD00023020
:10003800FE00FC30FF00323084000A128A11E122EF
:1000480083010A128A1128280130831603138600B7
:10005800043087008801043081008B160B11303082
:1000680083120313900005309700831603130C15B1
:10007800831203130C110B178B1710140A128A1111
:1000880053220A128A1180300A128A11B7220A12E0
:100098008A1101300A128A117B220A128A11C03091
:1000A8000A128A11B7220A128A1110308312031316
:1000B800A9002730AA003D08AC01AC073C08AB01F9
:1000C800AB070A128A111E210A128A11831203131E
:1000D8002908323E8400831300080A128A11CA22B2
:1000E8000A128A11E83083120313A9000330AA0008
:1000F8003D08A501A5073C08A401A4071030A200EB
:100108002730A3000A128A117B210A128A1183124E
:1001180003132308AC01AC072208AB01AB070A1292
:100128008A111E210A128A11831203132908323EEA
:100138008400831300080A128A11CA220A128A113B
:10014800643083120313A9000030AA003D08A501FA
:10015800A5073C08A401A407E830A2000330A300C7
:100168000A128A117B210A128A11831203132308A7
:10017800AC01AC072208AB01AB070A128A111E2199
:100188000A128A11831203132908323E840083134A
:1001980000080A128A11CA220A128A110A30831226
:1001A8000313A9000030AA003D08A501A5073C08D3
:1001B800A401A4076430A2000030A3000A128A1127
:1001C8007B210A128A11831203132308AC01AC079E
:1001D8002208AB01AB070A128A111E210A128A11E2
:1001E800831203132908323E8400831300080A127D
:1001F8008A11CA220A128A110A3083120313A20032
:100208000030A3003D08A501A5073C08A401A407E8
:100218000A128A117B210A128A11831203132208F7
:10022800323E8400831300080A128A11CA220A1275
:100238008A11532883120313AF01AA1F2A29A90977
:10024800AA09A90A0319AA0AAF01AF0AAC1F3529DE
:10025800AB09AC09AB0A0319AC0A0130AD002D0893
:10026800AF06B001B1012A08290403196C29AE01AF
:10027800AE0AAA1B4B2901300310A90DAA0DFF3E97
:10028800031D40290130AD002D08AE073D2901307E
:100298000310B00DB10DFF3E031D4C292A082C0296
:1002A800031D582929082B02031C61292908AB02C0
:1002B8002A08031CAC03AC02301401300310AA0C4A
:1002C800A90CFF3E031D62290130AE02031D4B2914
:1002D8002F0803197429B009B109B00A0319B10A22
:1002E8003108AA01AA073008A901A9070800831242
:1002F8000313A801A51F8729A409A509A40A03199E
:10030800A50AA801A80AA31F8E29A209A309A20A5F
:100318000319A30A230822040319BB29A701A70A62
:10032800A31BA22901300310A20DA30DFF3E031D3C
:1003380097290130A6002608A70794292308250233
:10034800031DA82922082402031CB0292208A4029C
:100358002308031CA503A50201300310A30CA20C5B
:10036800FF3E031DB1290130A702031DA229280859
:100378000319C329A409A509A40A0319A50A25086C
:10038800A301A3072408A201A2070800A001A10154
:100398008B138B1CD1298B10092A0B1DD6290B1105
:1003A8003E14092A0C1D092A0C118E018F01E83010
:1003B800F0000330F1001608F301F3071508F20105
:1003C800F2070A128A1115220A128A117108831279
:1003D8000313A101A1077008A001A0072108F900D3
:1003E8002008F8000310F80DF90D0310F80DF90DA9
:1003F8000310F80DF90D7808A0007908A10021086C
:10040800BD01BD072008BC01BC078B177D08FF0094
:100418007C088A007B0884007A0E8300FE0E7E0E1C
:100428000900F501F6017108700403194C2AF70157
:10043800F70AF11B2B2A01300310F00DF10DFF3ED6
:10044800031D202A0130F4007408F7071D2A013023
:100458000310F50DF60DFF3E031D2C2A71087302DB
:10046800031D382A70087202031C412A7008F20220
:100478007108031CF303F302751401300310F10C27
:10048800F00CFF3E031D422A0130F702031D2B2A00
:100498007608F101F1077508F001F007080001304E
:1004A80083120313A2000030A3000A128A119B22B0
:1004B8000A128A1138300A128A11B7220A128A11CE
:1004C80008300A128A11B7220A128A1101300A1258
:1004D8008A11B7220A128A1106300A128A11B72223
:1004E8000A128A110C300A128A11B72208008312E4
:1004F8000313A900290884000A128A11EE220A129D
:100508008A11003803190800290884000A128A1180
:10051800EE220A128A110A128A11CA220A128A11B2
:10052800013083120313A8002808A9077E2A831222
:100538000313A501A6012608803AA4002308803ADF
:100548002402031DA92A2208250203180800831281
:1005580003133E1C9F2A3E100130A5070318A60A64
:100568000030A6079F2A83120313A70027088800D4
:100578008612061386170130A2000030A3000A1263
:100588008A119B2283120313861308008312031314
:10059800A700270888008616061386170130A200D0
:1005A8000030A3000A128A119B22831203138613B8
:1005B80008007E088A007F088200DD220A128A115C
:1005C8008000840A04087D0603190034FF0A031911
:1005D800FE0AE12A02308A000408840A82070034ED
:1005E80050346534723469346F3464343A340034C6
:1005F80030343134323433343434353436343734B7
:040608003834393415
:02400E0071FF40
:00000001FF
