:060000000A128A11FB2F19
:100DEA00F301F4017408803AF2007108803A720241
:100DFA00031D012F7008730203180800791CF72ECF
:100E0A0079100130F3070318F40A0030F407F72EBB
:100E1A00FF308316031386007C309200573083120A
:100E2A00031395002C30970083160313870183124E
:100E3A0003130711063092000130F7000030F80062
:100E4A000130F5000030F6003D30F0000030F100CE
:100E5A000A128A11F5260A128A1183120313861CB2
:100E6A00602F033077067804031D402F0130F70006
:100E7A000030F800502F0130F7070318F80A003045
:100E8A00F807502F69304C2F70304C2F3E308316A4
:100E9A0003139200602F7808003A0319552F602F28
:100EAA007708013A0319472F033A0319492F013AE0
:100EBA0003194B2F602F8312061D292F0530750643
:100ECA007604031D6D2F0130F5000030F600732FF4
:100EDA000130F5070318F60A0030F60701307706E5
:100EEA0078040319882F9E2F71307E2F1A30842F91
:100EFA00353095000C30862F4F30842F31309500D5
:100F0A002C3097009E2F7608003A03198D2F9E2FBA
:100F1A007508013A0319792F033A03197B2F013A0D
:100F2A0003197D2F073A0319812F013A0319832FD9
:100F3A009E2F0230770678040319B52FCB2F3E3047
:100F4A00AB2F9C3095001C30B32F383095002C30D5
:100F5A00B32FD430B12F513095003C309700CB2FAE
:100F6A007608003A0319BA2FCB2F7508013A0319EC
:100F7A00A42F033A0319A62F013A0319AA2F073AF5
:100F8A000319AE2F013A0319B02FCB2F033077067E
:100F9A0078040319E42F292F0630D82F0F30950033
:100FAA003C30E22F1F3095001C30E22F2F30950085
:100FBA000C30E22F3B3095002C309700292F760811
:100FCA00003A0319E92F292F7508013A0319D12F7D
:100FDA00033A0319D32F013A0319D72F073A0319F2
:100FEA00DB2F013A0319DF2F292F292FF90183015A
:060FFA000A128A110D2FFE
:02400E0071FF40
:00000001FF
