:060000000A128A11FB2F19
:100F36001930831603139900181283120313981796
:100F46001813831603131815831203131816831622
:100F5600031386018312031386018C1EB02F1A0811
:100F6600F1007108F0007008313A031DBC2F1030F3
:100F760086007008323A031DC22F203086007008A2
:100F8600333A031DC82F303086007008343A031DEB
:100F9600CE2F403086007008353A031DD42F5030CE
:100FA60086007008363A031DDA2F60308600700816
:100FB600373A031DE02F703086007008383A031D5B
:100FC600E62F803086007008393A031DEC2F9030EA
:100FD60086007008303A0319860170082A3A031908
:100FE600F82F7008233A031DB02F01308600B02F6A
:0A0FF600F00183010A128A119B2FFB
:02400E0071FF40
:00000001FF
