:060000000A128A11122809
:10000800FE00030EF2000408F3000A08F40083124D
:1000180003137F08F5000A128A111C280A128A1194
:100028001528F801F601F70183010A128A11A1289F
:100038008B138B1C21288B1095280B1D95280B11D1
:10004800061C94280608F00004300310F00CFF3E4C
:10005800031D292870080F39F1007108F6000618E9
:100068003328F608031D3C283130F0007008F700EB
:100078007608013A031D44283230F0007008F70072
:100088007608023A031D4C283330F0007008F70058
:100098007608043A031D54283430F0007008F7003D
:1000A8007608053A031D5C283530F0007008F70023
:1000B8007608063A031D64283630F0007008F70009
:1000C8007608083A031D6C283730F0007008F700EE
:1000D8007608093A031D74283830F0007008F700D4
:1000E80076080A3A031D7C283930F0007008F700BA
:1000F80076080C3A031D84282A30F0007008F700AF
:1001080076080D3A031D8C283030F0007008F7008F
:1001180076080E3A031D94282330F0007008F70083
:1001280078148B177508FF0074088A007308840018
:10013800720E8300FE0E7E0E09000530831603132F
:1001480081008B160B118B17193099001812831226
:100158000313981783160313181318159816FF30EE
:10016800860083160313981CB52877088312031397
:040178009900B5280D
:02400E0071FF40
:00000001FF
