:060000000A128A11FB2F19
:100F36001930831603139900181283120313981796
:100F46001813831603131815831203131816831622
:100F5600031386018312031386018C1EB02F1A0811
:100F6600F1007108F0007008013A031DBC2F103023
:100F760086007008023A031DC22F203086007008D2
:100F8600033A031DC82F303086007008043A031D4B
:100F9600CE2F403086007008053A031DD42F5030FE
:100FA60086007008063A031DDA2F60308600700846
:100FB600073A031DE02F703086007008083A031DBB
:100FC600E62F803086007008093A031DEC2F90301A
:100FD600860070080A3A0319860170080C3A03194C
:100FE600F82F70080E3A031DB02F01308600B02F7F
:0A0FF600F00183010A128A119B2FFB
:02400E0071FF40
:00000001FF
