:060000000A128A11122809
:10000800FE00030EF8000408F9000A08FA0083123B
:1000180003137F08FB000A128A11C9280A128A11E1
:100028001528FC01FD01BA01BB01BC01BD010A1282
:100038008A1191220A128A11B5000A128A11922293
:100048000A128A11B6000A128A1193220A128A1118
:10005800B7000A128A1194220A128A11B8000A12E9
:100068008A119522B90083010A128A11792983120B
:1000780003132008A4002108A5002208A6000310E5
:10008800250D260DA7002708AD00AD08031D55282E
:100098000030A3000030A2000030A1000030A00012
:1000A80008002008A4002108A5002208A60017308F
:1000B8000310A60CA50CA40CFF3E031D5C28240805
:1000C800A7002708A800A117FF30A005FF30A10549
:1000D8000030A2052008A9002108AA002208AB00C8
:1000E800AC018E30AD02AD1F97282D08803A8F3EA7
:1000F800031887280030A3000030A2000030A100B8
:100108000030A000080001300310AC0CAB0CAA0CA6
:10011800A90CFF3E031D88280130A4002408AD0760
:100128000319B228872818302D02031CAF28003085
:10013800A3000030A2000030A1000030A000080099
:100148000130A4000310A90DAA0DAB0DAC0DA40B32
:10015800A6280130AD02AD08031DA42828080319FC
:10016800C028A909AA09AB09AC09A90A0319AA0A4E
:100178000319AB0A0319AC0A2C08A3002B08A20028
:100188002A08A1002908A00008008B138B1CCE2880
:100198008B1035290B1D35290B11061C342908082D
:1001A8000F39F4007408FD0010307D0203182C2963
:1001B8000330F4007408F0007D080A128A118022C6
:1001C8000A128A11013E84000A128A1143210A1276
:1001D8008A11F5000A128A1143210A128A11F600BF
:1001E8000A128A1143210A128A11F7007708760445
:1001F800750403192C290330F4007408F0007D08F5
:100208000A128A1180220A128A11013E84000A12F7
:100218008A1143210A128A1183120313B5000A12A4
:100228008A1143210A128A11B6000A128A1143213F
:100238000A128A11B7002C29013083120313BA005D
:100248000030BB00342983120313BA01BB013429DF
:100258007D080C3A03192029023A03192729342961
:100268007C148B177B0883120313FF007A088A001B
:1002780079088400780E8300FE0E7E0E0900013096
:100288008A000408840A8207003433344334413432
:100298003334C334413466341234423400340034C5
:1002A80000343334433442340034743442346634D2
:1002B80092344234003400340034CD34AA34423409
:1002C8003334C33442349A34DB3442340034003497
:1002D80000340034003400340034F4344234003440
:1002E8000034003400340034003401308316031322
:1002F800860087010F308800043081008B160B11AF
:100308008B170A128A11D8210A128A1180300A1210
:100318008A115A220A128A1196290A128A1100226F
:100328000A128A11831203133B083A04031991290C
:100338000130831203133A063B04031D96290A125F
:100348008A113E220A128A11962983120313390848
:100358000A128A116D220A128A11831203133808AD
:100368000A128A116D220A128A1180300A128A1121
:100378005A220A128A11831203133508A00036087C
:10038800A1003708A2000A128A113B200A128A111A
:10039800831203132108AF01AF072008AE01AE078F
:1003A8000A128A1120220800013083120313AE00BA
:1003B8000030AF000A128A1120220A128A1138303E
:1003C8000A128A115A220A128A1108300A128A114C
:1003D8005A220A128A1101300A128A115A220A1262
:1003E8008A1106300A128A115A220A128A110C300E
:1003F8000A128A115A2208000A128A11A9210A121D
:100408008A11013083120313B4003408B80738087E
:100418003A3A031D08003030B4003408B8000130FF
:10042800B4003408B90739083A3A031D08003030D7
:10043800B4003408B900080083120313B101B201F3
:10044800831203133208803AB0002F08803A300232
:10045800031D302A2E083102031808007C1C242AA8
:100468007C10013083120313B1070318B20A00305D
:10047800B207242A0A128A11A9210A128A11013004
:1004880083120313B80238082F3A031D08003930C5
:10049800B4003408B8000130B90239082F3A031DF6
:1004A80008003930B4003408B90008008312031377
:1004B800B300330887008612061386170130AE0092
:1004C8000030AF000A128A11202283120313861308
:1004D800080083120313B300330887008616061337
:1004E80086170130AE000030AF000A128A112022B0
:1004F8008312031386130800F300F201731C882A81
:100508007008F1007108F2070310F00D0310F30CE6
:10051800F308031D822A720808000034F4344234B8
:040528003034303407
:02400E0071FF40
:00000001FF
