:060000000A128A11122809
:10000800FE00030EF0000408F1000A08F200831253
:1000180003137F08F3000A128A113B280A128A1177
:100028001528F90183010A128A111A2867308316E4
:1000380003139900181683120313981783160313D2
:1000480098170C16181398160B178B170713871386
:100058000C1A2C280A30F4000030F5000A128A1114
:1000680054200A128A11831603130C162C280C1E0E
:100078004828831603130C1E4828323083120313B2
:100088009900831603130C1273088312FF00720879
:100098008A0071088400700E8300FE0E7E0E09002F
:1000A800F701F8017808803AF6007508803A760278
:1000B800031D60287408770203180800791C562865
:1000C80079100130F7070318F80A0030F8075628A6
:02400E0071FF40
:00000001FF
