:060000000A128A11122809
:10000800FE00030EF0000408F1000A08F200831253
:1000180003137F08F3000A128A11B0280A128A1102
:100028001528F801F90183010A128A111B280130E9
:1000380083160313860087010F308800043081007F
:100048008B160B118B170A128A1156200A128A1165
:1000580080300A128A11C5200A128A1183120313EA
:10006800061C322808080F39A2002208F9000618D1
:100078003B287908013E84000A128A119A200A1244
:100088008A11003A031932287908013E84000A12BD
:100098008A119A200A128A110A128A11D8200A1281
:1000A8008A112C280130F4000030F5000A128A1158
:1000B8007C200A128A1138300A128A11C5200A12C5
:1000C8008A1108300A128A11C5200A128A110130D1
:1000D8000A128A11C5200A128A1106300A128A11D8
:1000E800C5200A128A110C300A128A11C52008008C
:1000F80083120313A001A101831203132108803A7C
:10010800F6007508803A7602031D8C2874082002D0
:1001180003180800781C8028781001308312031314
:10012800A0070318A10A0030A107802800308A0020
:100138000408840A820700343134323433340034FA
:1001480034343534363400343734383439340034C0
:100158002A343034233400348B138B1CB5288B108D
:10016800B9280B1DB9280B1178148B177308FF00D9
:1001780072088A0071088400700E8300FE0E7E0EDD
:100188000900F70077088312031387008612061305
:1001980086170130F4000030F5000A128A117C201D
:1001A8008312031386130800F700770883120313DA
:1001B80087008616061386170130F4000030F50014
:0E01C8000A128A117C2083120313861308008A
:02400E0071FF40
:00000001FF
