:060000000A128A11122809
:10000800FE00030EF1000408F2000A08F300831250
:1000180003137F08F4000A128A113B2A0A128A1174
:100028001528C201C301C401C501C60183010A1212
:100038008A111E288316031386018801831203136D
:100048008601880110300A128A11DA220A128A11EE
:100058000A128A116A220A128A1180300A128A1137
:10006800F2220A128A111F3083120313A000803073
:10007800A1000A128A1190220A128A11C0300A12AB
:100088008A11F2220A128A11243083120313A00063
:100098008030A1000A128A1190220A128A11831252
:1000A80003134608031953284608B7003708C00049
:1000B800C1010130C2070318C30A0030C307013069
:1000C80042064304031D802885300A128A11F22251
:1000D8000A128A11403083120313A0000030A100D5
:1000E8000A128A1190220A128A11831203134608EF
:1000F800B7003708C500C601023042064304031D95
:10010800532886300A128A11F2220A128A114030C4
:1001180083120313A0000030A1000A128A11902252
:100128000A128A11831203134608B7003708C4005D
:10013800C601C201C3014508D03EA000FF30031824
:100148000030A1000A30A2000030A3000A128A1170
:10015800B5220A128A118312031344082007B70034
:1001680021080318210AB8003708D03EBE00380815
:100178000318013EFF3EBF002930B7003708A7002B
:100188003F08A901A9073E08A801A80739300A12A3
:100198008A11F5200A128A11C5300A128A11F22230
:1001A8000A128A111A3083120313A0008030A100AA
:1001B8000A128A1190220A128A11C5300A128A116B
:1001C800F2220A128A11393083120313A000003078
:1001D800A1000A128A1190220A128A1183120313AB
:1001E800532883120313B5002830AA002A08AF0049
:1001F8000130A707FF30270784000A128A110A2254
:100208000A128A11AA002A08B600B6080319AB29EF
:100218003608253A03191C293608AA00350884002F
:100228002A08831380000130AA002A08B507FC2891
:10023800AD010130A707FF30270784000A128A1191
:100248000A220A128A11B600003A0319AB29583A51
:1002580003193229203A03193229FC282F0884006F
:1002680083130008B000840A0008B1000230AA0015
:100278002A08AF07B601B60A3608043A03196529F1
:100288003608AA002A07013E84000A128A110A22A7
:100298000A128A11AB000A128A110A220A128A115A
:1002A800AC002C083102031D5B292B083002031C0B
:1002B80065290130AA002A08B6073608043A031D42
:1002C80044293608AA002A08B400FF30AA002A08E0
:1002D800B4073408FF3A0319FC283408AA002A078F
:1002E800013E84000A128A110A220A128A11A00009
:1002F8000A128A110A220A128A11A1003108A301DE
:10030800A3073008A201A2070A128A11B0210A1213
:100318008A118312031320080F39AB002B08AE0093
:100328002E08093E84000A128A110A220A128A112A
:10033800AA002A08B6003608AA00350884002A0848
:10034800831380000130AA002A08B50769293508F7
:10035800840083138001080083120313A401A501FC
:10036800210820040319E929A601A60AA11BC82906
:1003780001300310A00DA10DFF3E031DBD29013062
:10038800F6007608A607BA2901300310A40DA50DBA
:10039800FF3E031DC92921082302031DD529200872
:1003A8002202031CDE292008A2022108031CA30341
:1003B800A302241401300310A10CA00CFF3E031D5E
:1003C800DF290130A602031DC8292508A101A107BC
:0803D8002408A001A0070800A1
:10040000FF1B0A2A83137F1883170008840A031925
:10041000FF0A080002308A000408840A82070034B8
:10042000013400341034003400340134003410340A
:100430003034313432343334343435343634373480
:100440003834393441344234433444344534463406
:1004500000342034203420342034003444346534D3
:1004600063343A3400344834653478343A340034F0
:100470002534583400341412941B402A141F472A80
:100480001308F0007008F500941314131416831663
:100490000313941E14195D2A831203131308F0002A
:1004A0007008F50083160313141C522A83120313D9
:1004B0001308F0007008C600141683128C1174081B
:1004C000FF0073088A0072088400710E8300FE0E1C
:1004D0007E0E0900F93083120313A0000000A00B68
:1004E0006E2A722A000038300A128A11F2220A1289
:1004F0008A1108300A128A11F2220A128A11013076
:100500000A128A11F2220A128A1106300A128A117C
:10051000F2220A128A110C300A128A11F222080001
:10052000831203132108FF00200884000A128A1195
:1005300000220A128A1100380319080083120313DB
:100540002108FF00200884000A128A1100220A12E2
:100550008A110A128A1105230A128A1101308312A4
:100560000313A0070318A10A902AF601F7018312CA
:100570000313201CC12A2208F6070318F70A2308D0
:10058000F70701300310A20DA30DFF3E031DC22A81
:1005900001300310A10CA00CFF3E031DC92A210845
:1005A0002004031DB72A7708A101A1077608A0013E
:1005B000A0070800F60083160313871507163630C8
:1005C00083120313940001308316031391008030CB
:1005D0009400760893008C15831203138C110B176B
:1005E0008B170800F7007708831203138800861022
:1005F00006118615F930F6000000F60BFC2A002BD8
:1006000000008312031386110800F7007708831295
:1006100003138800861406118615F930F6000000D1
:10062000F60B0F2B132B0000831203138611080007
:02400E0071FF40
:00000001FF
