:060000000A128A11FC2F18
:100E9A000A128A115B2783160313111408000A1217
:100EAA008A115B278316031311150800831603138F
:100EBA0011081F39031914195B2F0800F0000A12D0
:100ECA008A115B27700883120313930008008316A4
:100EDA000313871507162830831203139400831609
:100EEA00031391019401093093000800F1000A12DA
:100EFA008A115B270A128A118316031391150A12A3
:100F0A008A115B270A128A11831203131308F0004D
:100F1A007008F2000A128A115B270A128A11F10874
:100F2A00031D9B2F8316031391169E2F83160313FB
:100F3A009112111672080800831603138601831290
:100F4A0003138601FF308316031388000A128A11DD
:100F5A006C270A128A110A128A114D270A128A115B
:100F6A0010300A128A1163270A128A118312031394
:100F7A0008080A128A1163270A128A110A128A11A8
:100F8A0054270A128A110230F5000430F400BA30EC
:100F9A00F300F30BCE2FF40BCE2FF50BCE2F000060
:100FAA000A128A114D270A128A1111300A128A115D
:100FBA0063270A128A1100300A128A117B270A1241
:100FCA008A118312031386000A128A1154270A12FD
:100FDA008A110230F5000430F400BA30F300F30B42
:100FEA00F42FF40BF42FF50BF42F0000B02F83012C
:060FFA000A128A11A12F6A
:02400E0071FF40
:00000001FF
