:060000000A128A11122809
:10000800FE00030EF8000408F9000A08FA0083123B
:1000180003137F08FB000A128A11B7280A128A11F3
:100028001528FC01FD01BE01BF0183133E30FD0010
:100038000230FE00E730FF00373084000A128A11D0
:10004800C92283010A128A11D529831203132008B1
:10005800A4002108A5002208A6000310250D260DDE
:10006800A7002708AD00AD08031D43280030A300F2
:100078000030A2000030A1000030A00008002008D5
:10008800A4002108A5002208A60017300310A60C1A
:10009800A50CA40CFF3E031D4A282408A700270826
:1000A800A800A117FF30A005FF30A1050030A20568
:1000B8002008A9002108AA002208AB00AC018E3054
:1000C800AD02AD1F85282D08803A8F3E031875288C
:1000D8000030A3000030A2000030A1000030A000D2
:1000E800080001300310AC0CAB0CAA0CA90CFF3EA5
:1000F800031D76280130A4002408AD070319A028A1
:10010800752818302D02031C9D280030A3000030EC
:10011800A2000030A1000030A00008000130A400B7
:100128000310A90DAA0DAB0DAC0DA40B942801303A
:10013800AD02AD08031D922828080319AE28A909A5
:10014800AA09AB09AC09A90A0319AA0A0319AB0A37
:100158000319AC0A2C08A3002B08A2002A08A10046
:100168002908A00008008B138B1CBC288B1023299E
:100178000B1D23290B11061C222908080F39F4002E
:100188007408FD0010307D0203181A290330F400AA
:100198007408F0007D080A128A11D6220A128A1100
:1001A800013E84000A128A1131210A128A11F500CF
:1001B8000A128A1131210A128A11F6000A128A11CA
:1001C80031210A128A11F700770876047504031999
:1001D8001A290330F4007408F0007D080A128A1105
:1001E800D6220A128A11013E84000A128A1131218C
:1001F8000A128A1183120313B7000A128A113121D5
:100208000A128A11B8000A128A1131210A128A11B7
:10021800B9001A2983120313BA01BB01222901303C
:1002280083120313BA000030BB0022297D080C3A60
:1002380003190E29023A0319132922297C148B1752
:100248007B0883120313FF007A088A007908840068
:10025800780E8300FE0E7E0E090001308A00040825
:10026800840A820700343334433441343334C3348A
:1002780041346634123442340034003400343334A8
:100288004334423400347434423466349234423451
:10029800003400340034CD34AA3442343334C33407
:1002A80042349A34DB3442340034003400340034AD
:1002B800003400340034F434423400340034003460
:1002C800003400340034203443346F3475346E34D1
:1002D80074346534723420342834553470342934F5
:1002E8002034003443346F3475346E3474346534D8
:1002F80072342034283444346F3477346E342934DB
:100308000034203420342034203420342034003485
:10031800831203133B083A0403199A29C3300A12BB
:100328008A119F220A128A113130A129C3300A1278
:100338008A119F220A128A1140300A128A11452214
:100348000A128A119D300A128A119F220A128A11F2
:10035800831203133D080A128A11B2220A128A1163
:10036800831203133C080A128A11B2220A128A1154
:10037800831203133708A0003808A1003908A20027
:100388000A128A1129200A128A11831203132108DA
:10039800AF01AF072008AE01AE070A128A11652225
:1003A8000800013083160313860087010F30880088
:1003B800043081008B160B118B170A128A11FD214C
:1003C8000A128A110A128A118C210A128A11F12939
:1003D8000A128A1125220A128A11831203133B0872
:1003E8003A04031DEC290A128A1183220A128A117F
:1003F800F129013083120313AE000030AF000A1256
:100408008A1165220A128A1138300A128A119F222B
:100418000A128A1108300A128A119F220A128A11B6
:1004280001300A128A119F220A128A1106300A1212
:100438008A119F220A128A110C300A128A119F22ED
:1004480008000A128A118C210A128A1101308312BB
:100458000313B6003608BC073C083A3A031D0800E7
:100468003030B6003608BC000130B6003608BD078B
:100478003D083A3A031D08003030B6003608BD0082
:10048800080083120313B500350884000A128A1184
:1004980031210A128A11003803190800350884002E
:1004A8000A128A1131210A128A110A128A11B222F9
:1004B8000A128A11013083120313B4003408B507F5
:1004C800482A83120313B101B201831203133208BD
:1004D800803AB0002F08803A3002031D752A2E0892
:1004E8003102031808007C1C692A7C100130831231
:1004F8000313B1070318B20A0030B207692A0A12B7
:100508008A118C210A128A11013083120313BC024A
:100518003C082F3A031D08003930B6003608BC00E5
:100528000130BD023D082F3A031D08003930B600DE
:100538003608BD00080083120313B3003308870090
:100548008612061386170130AE000030AF000A127B
:100558008A1165228312031386130800831203137A
:10056800B300330887008616061386170130AE00DD
:100578000030AF000A128A11652283120313861312
:1005880008007E088A007F088200C5220A128A11A4
:100598008000840A04087D0603190034FF0A031941
:1005A800FE0AC92AF300F201731CDE2A7008F10062
:1005B8007108F2070310F00D0310F30CF308031D84
:1005C800D82A720808000034F43442340134003464
:0405D8003034303457
:02400E0071FF40
:00000001FF
