:060000000A128A11122809
:10000800FE00030EF0000408F1000A08F200831253
:1000180003137F08F3000A128A111C2B0A128A1193
:100028001528F701F801AC01AD010A128A118623DF
:100038000A128A11AE000A128A118523F900830177
:100048000A128A1127288030831603139F00413033
:10005800831203139F00831603130C1783120313D1
:100068000C130B178B171F151930831603139900E0
:1000780018128312031398178316031318131815ED
:100088009816051486018312031386010A128A1131
:100098004D230A128A114E300A128A1149210A1276
:1000A8008A1183120313A401A40A01300A128A11C7
:1000B8007F220A128A1135300A128A1159220A122D
:1000C8008A11771C3D297710831203132D08AB0181
:1000D800AB072C08AA01AA072B08803AFF0080303A
:1000E8007F02031D7928AA302A02031CA028831244
:1000F80003132B08803AFF0081307F02031D8628F6
:1001080055302A020318A02883120313A401A40A55
:1001180002300A128A117F220A128A114E300A12FC
:100128008A1159220A128A112B3083120313A8004C
:100138002808AE0003308600831203132B08803A88
:10014800FF0081307F02031DAB2855302A02031CB3
:10015800D228831203132B08803AFF0081307F02D4
:10016800031DB828FF302A020318D228831203136C
:10017800A401A40A02300A128A117F220A128A11E3
:1001880048300A128A1159220A128A112130831220
:100198000313A8002808AE00023086008312031358
:1001A8002B08803AFF0081307F02031DDD28FF30D5
:1001B8002A02031C0429831203132B08803AFF0028
:1001C80082307F02031DEA28AB302A020318042973
:1001D80083120313A401A40A02300A128A117F228F
:1001E8000A128A1142300A128A1159220A128A11F5
:1001F800173083120313A8002808AE0001308600C8
:10020800831203132B08803AFF0083307F02031DFB
:100218000F2956302A02031C3529831203132B0891
:10022800803AFF0084307F02031D1C2901302A0216
:100238000318352983120313A401A40A02300A12F1
:100248008A117F220A128A113C300A128A11592215
:100258000A128A110D3083120313A8002808AE0071
:100268008601831203132E080A128A11A4220A1285
:100278008A11823083120313A900DD30A800A80B6D
:100288004329A90B43294829652883120313A6008B
:100298002608A4002408F60000300A128A11362322
:1002A8000A128A11273083120313A500F530A4001F
:1002B800A40B5C29A50B5C2903300A128A110023C0
:1002C8000A128A11073083120313A5007D30A40097
:1002D800A40B6C29A50B6C2903300A128A11002380
:1002E8000A128A11073083120313A5007D30A40077
:1002F800A40B7C29A50B7C2903300A128A11002340
:100308000A128A11073083120313A5007D30A40056
:10031800A40B8C29A50B8C2902300A128A11002300
:100328000A128A11073083120313A5007D30A40036
:10033800A40B9C29A50B9C2928300A128A1100239A
:100348000A128A11413083120313A500EE30A4006B
:10035800A40BAC29A50BAC2900000C300A128A1199
:1003680000230A128A11413083120313A500EE30CC
:10037800A400A40BBD29A50BBD29000001300A1259
:100388008A1100230A128A11413083120313A5002F
:10039800EE30A400A40BCE29A50BCE290000063010
:1003A8000A128A1100230A128A1141308312031398
:1003B800A500EE30A400A40BDF29A50BDF2900005F
:0203C80008002B
:1004000002308A000408840A8207003457346134B9
:100410006934743469346E3467342E342E342E3497
:100420000A340034733474347234613474342034D4
:1004300030340D340A34003473347434723461341B
:100440007434203431340D340A3400347334743449
:10045000723461347434203432340D340A3400344C
:1004600073347434723461347434203433340D345E
:100470000A340034533474347234613474343A348A
:1004800000346E346F342E342034303400346E3403
:100490006F342E342034313400346E346F342E34C3
:1004A0002034323400346E346F342E3420343334FC
:1004B000003483120313A600A401A5012408260713
:1004C00084000A128A1100220A128A1100380319C4
:1004D00008002408260784000A128A1100220A1242
:1004E0008A110A128A11E3220A128A110130831238
:1004F0000313A4070318A50A0030A5075E2A831278
:100500000313A6008030A5002508A700922AC0305A
:100510008E2A94308E2AD4308E2A8030A500250869
:10052000A7009D2A2608023A0319872A013A0319CF
:10053000892A073A03198B2A8D2A24082707FF3EA8
:100540000A128A110023080083120313A000200856
:1005500084000A128A1100220A128A110038031933
:100560000800200884000A128A1100220A128A1147
:100570000A128A115C230A128A110130F5007508EB
:1005800083120313A007A72A83120313A10078087C
:10059000A0002008A104210804380A128A11362379
:1005A0000A128A11831203132108FB390A128A11D5
:1005B00036230A128A11103083120313A000A00BF5
:1005C000DF2A0000080083120313A300F801F80AD1
:1005D0002308F0390A128A11C4220A128A118312DE
:1005E00003132308A20003300310A20DFF3E031DD6
:1005F000F42A0310220DF0390A128A11C4220800CD
:1006000083120313A300F8012308F0390A128A1198
:10061000C4220A128A11831203132308A200033092
:100620000310A20DFF3E031D102B0310220DF03905
:100630000A128A11C42208000C1F2B2B0C131E084F
:10064000AD01AD07831603131E0883120313AC011B
:10065000AC0777141F157308FF0072088A00710831
:100660008400700E8300FE0E7E0E0900F5000A1253
:100670008A117E230A128A1176080A128A116623C9
:100680000A128A11750879040A128A1166230A125D
:100690008A110A128A11772308008316031387151B
:1006A0000716283083120313940083160313910155
:1006B0009401093093000800F40083160313981C7A
:1006C0005D2B74088312031399000800F4000A12CA
:1006D0008A116F2374088312031393000800831692
:1006E000031311081F39031914196F2B08000A127C
:1006F0008A116F2383160313111508000A128A1139
:0E0700006F238316031311140800083401340C
:02400E0071FF40
:00000001FF
