:060000000A128A11122809
:10000800FE00030EF2000408F3000A08F40083124D
:1000180003137F08F5000A128A111C280A128A1194
:100028001528F601F701F80183010A128A115728E9
:100038008B138B1C21288B104C280B1D4C280B1163
:10004800061C4B280608F00004300310F00CFF3E95
:10005800031D292870080F39F1007108F6000618E9
:1000680033287608013E84000A128A1190200A1269
:100078008A11003A03194B287608013E84000A12B7
:100088008A1190200A128A11F0007008F7008B1765
:100098007508FF0074088A0073088400720E8300D4
:1000A800FE0E7E0E090004308316031381008B16A2
:1000B8000B118B17FF308600880183120313880108
:1000C8000A128A11A6200A128A110A128A11CF204E
:1000D8000A128A1110300A128A11B5200A128A11DE
:1000E80077080A128A11B5200A128A110A128A118F
:1000F800C8200A128A11F701023083120313A300E1
:100108000430A200BA30A100A10B8828A20B8828CD
:10011800A30B88280000692800308A000408840A94
:1001280082070034313432343334003434343534D3
:100138003634003437343834393400342A343034DF
:1001480023340034831603138715071628308312C7
:10015800031394008316031391019401093093004B
:10016800080083120313A0000A128A11C020831208
:1001780003132008930008008316031311081F397E
:1001880003191419C02808000A128A11C0208316FE
:100198000313111508000A128A11C02083160313CD
:0401A8001114080026
:02400E0071FF40
:00000001FF
