:060000000A128A11122809
:10000800FE00030EF1000408F2000A08F300831250
:1000180003137F08F4000A128A1172290A128A113E
:100028001528B301B401B5010A128A1158220A121F
:100038008A11B6000A128A115922B70083010A12DE
:100048008A11262883160313860188018312031355
:100058008601880110300A128A111A220A128A119E
:100068000A128A11A1210A128A1180300A128A11F1
:1000780032220A128A11063083120313A00080303C
:10008800A1000A128A11C7210A128A11C0300A1265
:100098008A1132220A128A11013083120313A00036
:1000A8008030A1000A128A11C7210A128A1183120C
:1000B8000313B101A301350803195F2835082A3A4B
:1000C800031D6E280130B6070318B70A0030B707BA
:1000D800B10183283508233A031D76283108013EEB
:1000E8000F39802830303502031C83283A30350216
:1000F800031883283508D03EA2002208B1000A3030
:10010800310203188A283108303E8C283108373EDE
:10011800A2002208B200013036063704031DC028A9
:1001280085300A128A1132220A128A1120300A12E4
:100138008A1145220A128A1185300A128A1132223E
:100148000A128A118312031332080A128A114522ED
:100158000A128A113030831203133202031CBB289F
:100168003A3032020318BB283208D03EBD28320884
:10017800C93EA2002208B400023036063704031D27
:10018800F12886300A128A1132220A128A11203086
:100198000A128A1145220A128A1186300A128A1115
:1001A80032220A128A118312031332080A128A11A0
:1001B80045220A128A113030831203133202031CBB
:1001C800EC283A3032020318EC283208D03EEE28E8
:1001D8003208C93EA2002208B300033036063704AD
:1001E800031D6E290130B6000030B7000330AD00A2
:1001F8000030AE00AE1B25290130A2002D0A0629C9
:100208000310A20DFF3E031D042922083405031D17
:100218000F29303010293130A4000030A5002408FF
:10022800A2002D03FF3A033E283E840022088313D0
:100238008000FF30AD070318AE0AFF30AE07AE1FCF
:100248000029AC01C5300A128A1132220A128A1119
:10025800283083120313A0000030A1000A128A116B
:10026800C7210A128A11033083120313AF0000302A
:10027800B000B01B64290130A2002F0A45290310E1
:10028800A20DFF3E031D432922083305031D4E29F5
:1002980030304F293130A6000030A7002608A200D0
:1002A8002F03FF3A033E283E840022088313800070
:1002B800FF30AF070318B00AFF30B007B01F3F295F
:1002C800AC012830A0000030A1000A128A11C72111
:1002D8000A128A1183120313B5015F281412941BA2
:1002E8007729141F7E291308F0007008F50094136D
:1002F8001413141683160313941E141994298312C5
:1003080003131308F0007008F50083160313141C78
:100318008929831203131308F0007008B500141616
:1003280083128C117408FF0073088A007208840015
:10033800710E8300FE0E7E0E0900F930831203133E
:10034800A0000000A00BA529A929000038300A1236
:100358008A1132220A128A1108300A128A113222AC
:100368000A128A1101300A128A1132220A128A11DB
:1003780006300A128A1132220A128A110C300A1225
:100388008A1132220800831203132108FF00200873
:1003980084000A128A1100220A128A1100380319ED
:1003A8000800831203132108FF00200884000A12A2
:1003B8008A1100220A128A110A128A1145220A1287
:1003C8008A11013083120313A0070318A10AC72951
:10040000FF1B0A2A83137F1883170008840A031925
:10041000FF0A080002308A000408840A82070034B8
:10042000423469346E343A340034483465347834B4
:100430003A340034F6008316031387150716363056
:10044000831203139400013083160313910080304C
:100450009400760893008C15831203138C110B17EC
:100460008B170800F70077088312031388008610A3
:1004700006118615F930F6000000F60B3C2A402ADA
:1004800000008312031386110800F7007708831217
:1004900003138800861406118615F930F600000053
:1004A000F60B4F2A532A000083120313861108000B
:0404B00001340034DF
:02400E0071FF40
:00000001FF
