:060000000A128A11122809
:10000800FE00030EF0000408F1000A08F200831253
:1000180003137F08F3000A128A115C280A128A1156
:100028001528FD01F901FA01FB01FC0183010A12FF
:100038008A111E28831603138501FF3086000430B9
:1000480081008B160B118B178312031385014F2820
:1000580001308312031385000130F9000030FA00E3
:100068007A30F4000030F5000A128A1175200A125D
:100078008A117C087B0403194F2883120313850116
:10008800F901FA017A30F4000030F5000A128A11F9
:1000980075200A128A117C087B04031D2C287A0813
:1000A80079040030031D01308312031385004F28A3
:1000B8008B138B1C65288B100130FB060030FC0667
:1000C80069280B1D69280B117D148B177308FF0015
:1000D80072088A0071088400700E8300FE0E7E0E7E
:1000E8000900F701F8017808803AF6007508803AA7
:1000F8007602031D812874087702031808007D1C06
:1001080077287D100130F7070318F80A0030F80740
:02011800772846
:02400E0071FF40
:00000001FF
