:060000000A128A11FC2F18
:100F3C00F201F30171087302031DA62F70087202EF
:100F4C0003180800F401F50103307502E8300319A9
:100F5C0074020318BE2F0130F4070318F50A003091
:100F6C00F50703307502E83003197402031CB12F26
:100F7C000130F2070318F30A0030F307A02FFF30FB
:100F8C00831603138500860106309F00831203131A
:100F9C0086010508013A031DCC2FF601F70100303C
:100FAC0077020330031976020318CC2F0130831219
:100FBC00031386003230F0000030F1000A128A115F
:100FCC009E270A128A118312031386013230F00015
:100FDC000030F1000A128A119E270A128A11013080
:100FEC00F6070318F70A0030F707D52F83010A120A
:040FFC008A11C52F62
:02400E0071FF40
:00000001FF
