:060000000A128A11122809
:10000800FE00030EF3000408F4000A08F50083124A
:1000180003137F08F6000A128A1121280A128A118E
:100028001528FC01F701F801F901FA01FB01A40107
:10003800A50183010A128A119D288B138B1C26287F
:100048008B1091280B1D91280B11061C902806086F
:10005800F0000310700C0F39F1007108FB0006184E
:1000680033287B08F0007007013E84000A128A11C9
:1000780000210A128A11F1000A128A1100210A12BB
:100088008A11F20072087104031990287B08F000A5
:100098007007013E84000A128A1100210A128A118F
:1000A800F1000A128A1100210A128A11F2000030A6
:1000B80072020A3003197102031890280130F907F7
:1000C8000318FA0A0030FA07013079067A04031D8A
:1000D8007F287B08F0007007013E84000A128A110D
:1000E80000210A128A11F7000A128A1100210A1245
:1000F8008A11F80090287B08F0007007013E840000
:100108000A128A1100210A128A11A4000A128A11FD
:1001180000210A128A11A5007C148B177608FF00AB
:1001280075088A0074088400730E8300FE0E7E0E24
:100138000900193083160313990018128312031348
:10014800981783160313181318159816043081008E
:100158008B160B118B17FF3086008801831203134F
:10016800880178088312A301A3077708A201A207D0
:100178002508A101A1072408A001A0072208A600BC
:1001880003300310A60DFF3E031DC5280310260DDE
:1001980020048800023079067A04031DB5288316E6
:1001A8000313981CE328831203132208990083166B
:1001B8000313981CDB288312031320089900F90104
:0401C800FA01B5285B
:1002000001308A000408840A820700340134003473
:100210000234003403340034003400340434003435
:10022000053400340634003400340034073400341C
:100230000834003409340034003400342A340034E3
:0C02400000340034233400340034003457
:02400E0071FF40
:00000001FF
